{
  "contractName": "CourseMarketplace",
  "abi": [
    {
      "inputs": [],
      "stateMutability": "nonpayable",
      "type": "constructor"
    },
    {
      "inputs": [],
      "name": "CourseError",
      "type": "error"
    },
    {
      "inputs": [],
      "name": "CourseIsNotCreated",
      "type": "error"
    },
    {
      "inputs": [],
      "name": "InvalidState",
      "type": "error"
    },
    {
      "inputs": [],
      "name": "IsNotCourseOwner",
      "type": "error"
    },
    {
      "inputs": [],
      "name": "OwnerError",
      "type": "error"
    },
    {
      "inputs": [
        {
          "internalType": "bytes16",
          "name": "courseId",
          "type": "bytes16"
        },
        {
          "internalType": "bytes32",
          "name": "proof",
          "type": "bytes32"
        }
      ],
      "name": "purchaseCourse",
      "outputs": [],
      "stateMutability": "payable",
      "type": "function",
      "payable": true
    },
    {
      "inputs": [
        {
          "internalType": "bytes32",
          "name": "courseHash",
          "type": "bytes32"
        }
      ],
      "name": "repurchaseCourse",
      "outputs": [],
      "stateMutability": "payable",
      "type": "function",
      "payable": true
    },
    {
      "inputs": [
        {
          "internalType": "bytes32",
          "name": "courseHash",
          "type": "bytes32"
        }
      ],
      "name": "activateCourse",
      "outputs": [],
      "stateMutability": "nonpayable",
      "type": "function"
    },
    {
      "inputs": [
        {
          "internalType": "bytes32",
          "name": "courseHash",
          "type": "bytes32"
        }
      ],
      "name": "deactivateCourse",
      "outputs": [],
      "stateMutability": "nonpayable",
      "type": "function"
    },
    {
      "inputs": [
        {
          "internalType": "address",
          "name": "newOwner",
          "type": "address"
        }
      ],
      "name": "transferOwnership",
      "outputs": [],
      "stateMutability": "nonpayable",
      "type": "function"
    },
    {
      "inputs": [],
      "name": "getTotalCourses",
      "outputs": [
        {
          "internalType": "uint256",
          "name": "",
          "type": "uint256"
        }
      ],
      "stateMutability": "view",
      "type": "function",
      "constant": true
    },
    {
      "inputs": [
        {
          "internalType": "uint256",
          "name": "index",
          "type": "uint256"
        }
      ],
      "name": "getCourseAtIndex",
      "outputs": [
        {
          "internalType": "bytes32",
          "name": "",
          "type": "bytes32"
        }
      ],
      "stateMutability": "view",
      "type": "function",
      "constant": true
    },
    {
      "inputs": [
        {
          "internalType": "bytes32",
          "name": "courseHash",
          "type": "bytes32"
        }
      ],
      "name": "getCourseAtHash",
      "outputs": [
        {
          "components": [
            {
              "internalType": "uint256",
              "name": "id",
              "type": "uint256"
            },
            {
              "internalType": "uint256",
              "name": "price",
              "type": "uint256"
            },
            {
              "internalType": "bytes32",
              "name": "proof",
              "type": "bytes32"
            },
            {
              "internalType": "address",
              "name": "owner",
              "type": "address"
            },
            {
              "internalType": "enum CourseMarketplace.State",
              "name": "state",
              "type": "uint8"
            }
          ],
          "internalType": "struct CourseMarketplace.Course",
          "name": "",
          "type": "tuple"
        }
      ],
      "stateMutability": "view",
      "type": "function",
      "constant": true
    },
    {
      "inputs": [],
      "name": "getContractOwner",
      "outputs": [
        {
          "internalType": "address",
          "name": "",
          "type": "address"
        }
      ],
      "stateMutability": "view",
      "type": "function",
      "constant": true
    }
  ],
  "bytecode": "0x608060405234801561001057600080fd5b506100203361002560201b60201c565b610069565b80600360006101000a81548173ffffffffffffffffffffffffffffffffffffffff021916908373ffffffffffffffffffffffffffffffffffffffff16021790555050565b611340806100786000396000f3fe6080604052600436106100865760003560e01c8063935d7e6d11610059578063935d7e6d14610138578063d4cba21c14610161578063d76821cb1461018c578063f2fde38b146101a8578063fc41ce56146101d157610086565b8063392625721461008b5780633ae6d867146100b4578063442890d5146100f15780636136e1eb1461011c575b600080fd5b34801561009757600080fd5b506100b260048036038101906100ad9190610e75565b61020e565b005b3480156100c057600080fd5b506100db60048036038101906100d69190610e9e565b6103e1565b6040516100e89190611068565b60405180910390f35b3480156100fd57600080fd5b506101066103fe565b604051610113919061104d565b60405180910390f35b61013660048036038101906101319190610e75565b610428565b005b34801561014457600080fd5b5061015f600480360381019061015a9190610e75565b6105d6565b005b34801561016d57600080fd5b50610176610888565b60405161018391906110be565b60405180910390f35b6101a660048036038101906101a19190610e39565b610892565b005b3480156101b457600080fd5b506101cf60048036038101906101ca9190610e10565b610a7e565b005b3480156101dd57600080fd5b506101f860048036038101906101f39190610e75565b610af6565b60405161020591906110a3565b60405180910390f35b6102166103fe565b73ffffffffffffffffffffffffffffffffffffffff163373ffffffffffffffffffffffffffffffffffffffff161461027a576040517f0acc09c400000000000000000000000000000000000000000000000000000000815260040160405180910390fd5b61028381610c1d565b6102b9576040517f4db0c48300000000000000000000000000000000000000000000000000000000815260040160405180910390fd5b6000806000838152602001908152602001600020905060006002811115610309577f4e487b7100000000000000000000000000000000000000000000000000000000600052602160045260246000fd5b8160030160149054906101000a900460ff166002811115610353577f4e487b7100000000000000000000000000000000000000000000000000000000600052602160045260246000fd5b1461038a576040517fbaf3f0f700000000000000000000000000000000000000000000000000000000815260040160405180910390fd5b60018160030160146101000a81548160ff021916908360028111156103d8577f4e487b7100000000000000000000000000000000000000000000000000000000600052602160045260246000fd5b02179055505050565b600060016000838152602001908152602001600020549050919050565b6000600360009054906101000a900473ffffffffffffffffffffffffffffffffffffffff16905090565b61043181610c1d565b610467576040517f4db0c48300000000000000000000000000000000000000000000000000000000815260040160405180910390fd5b61047081610c8b565b6104a6576040517f1d8190b400000000000000000000000000000000000000000000000000000000815260040160405180910390fd5b600080600083815260200190815260200160002090506002808111156104f5577f4e487b7100000000000000000000000000000000000000000000000000000000600052602160045260246000fd5b8160030160149054906101000a900460ff16600281111561053f577f4e487b7100000000000000000000000000000000000000000000000000000000600052602160045260246000fd5b14610576576040517fbaf3f0f700000000000000000000000000000000000000000000000000000000815260040160405180910390fd5b60008160030160146101000a81548160ff021916908360028111156105c4577f4e487b7100000000000000000000000000000000000000000000000000000000600052602160045260246000fd5b02179055503481600101819055505050565b6105de6103fe565b73ffffffffffffffffffffffffffffffffffffffff163373ffffffffffffffffffffffffffffffffffffffff1614610642576040517f0acc09c400000000000000000000000000000000000000000000000000000000815260040160405180910390fd5b61064b81610c1d565b610681576040517f4db0c48300000000000000000000000000000000000000000000000000000000815260040160405180910390fd5b60008060008381526020019081526020016000209050600060028111156106d1577f4e487b7100000000000000000000000000000000000000000000000000000000600052602160045260246000fd5b8160030160149054906101000a900460ff16600281111561071b577f4e487b7100000000000000000000000000000000000000000000000000000000600052602160045260246000fd5b14610752576040517fbaf3f0f700000000000000000000000000000000000000000000000000000000815260040160405180910390fd5b60008160030160009054906101000a900473ffffffffffffffffffffffffffffffffffffffff1673ffffffffffffffffffffffffffffffffffffffff1682600101546040516107a090611038565b60006040518083038185875af1925050503d80600081146107dd576040519150601f19603f3d011682016040523d82523d6000602084013e6107e2565b606091505b5050905080610826576040517f08c379a000000000000000000000000000000000000000000000000000000000815260040161081d90611083565b60405180910390fd5b60028260030160146101000a81548160ff02191690836002811115610874577f4e487b7100000000000000000000000000000000000000000000000000000000600052602160045260246000fd5b021790555060008260010181905550505050565b6000600254905090565b600082336040516020016108a792919061100c565b6040516020818303038152906040528051906020012090506108c881610c8b565b156108ff576040517fbcffca8a00000000000000000000000000000000000000000000000000000000815260040160405180910390fd5b6000600260008154809291906109149061118c565b9190505590508160016000838152602001908152602001600020819055506040518060a001604052808281526020013481526020018481526020013373ffffffffffffffffffffffffffffffffffffffff168152602001600060028111156109a5577f4e487b7100000000000000000000000000000000000000000000000000000000600052602160045260246000fd5b81525060008084815260200190815260200160002060008201518160000155602082015181600101556040820151816002015560608201518160030160006101000a81548173ffffffffffffffffffffffffffffffffffffffff021916908373ffffffffffffffffffffffffffffffffffffffff16021790555060808201518160030160146101000a81548160ff02191690836002811115610a70577f4e487b7100000000000000000000000000000000000000000000000000000000600052602160045260246000fd5b021790555090505050505050565b610a866103fe565b73ffffffffffffffffffffffffffffffffffffffff163373ffffffffffffffffffffffffffffffffffffffff1614610aea576040517f0acc09c400000000000000000000000000000000000000000000000000000000815260040160405180910390fd5b610af381610cf8565b50565b610afe610d3c565b6000808381526020019081526020016000206040518060a00160405290816000820154815260200160018201548152602001600282015481526020016003820160009054906101000a900473ffffffffffffffffffffffffffffffffffffffff1673ffffffffffffffffffffffffffffffffffffffff1673ffffffffffffffffffffffffffffffffffffffff1681526020016003820160149054906101000a900460ff166002811115610bda577f4e487b7100000000000000000000000000000000000000000000000000000000600052602160045260246000fd5b6002811115610c12577f4e487b7100000000000000000000000000000000000000000000000000000000600052602160045260246000fd5b815250509050919050565b60008073ffffffffffffffffffffffffffffffffffffffff1660008084815260200190815260200160002060030160009054906101000a900473ffffffffffffffffffffffffffffffffffffffff1673ffffffffffffffffffffffffffffffffffffffff1614159050919050565b60003373ffffffffffffffffffffffffffffffffffffffff1660008084815260200190815260200160002060030160009054906101000a900473ffffffffffffffffffffffffffffffffffffffff1673ffffffffffffffffffffffffffffffffffffffff16149050919050565b80600360006101000a81548173ffffffffffffffffffffffffffffffffffffffff021916908373ffffffffffffffffffffffffffffffffffffffff16021790555050565b6040518060a00160405280600081526020016000815260200160008019168152602001600073ffffffffffffffffffffffffffffffffffffffff16815260200160006002811115610db6577f4e487b7100000000000000000000000000000000000000000000000000000000600052602160045260246000fd5b81525090565b600081359050610dcb816112ae565b92915050565b600081359050610de0816112c5565b92915050565b600081359050610df5816112dc565b92915050565b600081359050610e0a816112f3565b92915050565b600060208284031215610e2257600080fd5b6000610e3084828501610dbc565b91505092915050565b60008060408385031215610e4c57600080fd5b6000610e5a85828601610dd1565b9250506020610e6b85828601610de6565b9150509250929050565b600060208284031215610e8757600080fd5b6000610e9584828501610de6565b91505092915050565b600060208284031215610eb057600080fd5b6000610ebe84828501610dfb565b91505092915050565b610ed0816110f5565b82525050565b610edf816110f5565b82525050565b610ef6610ef1826110f5565b6111d5565b82525050565b610f0d610f0882611107565b6111e7565b82525050565b610f1c81611133565b82525050565b610f2b81611133565b82525050565b610f3a8161117a565b82525050565b6000610f4d6010836110e4565b9150610f588261126e565b602082019050919050565b6000610f706000836110d9565b9150610f7b82611297565b600082019050919050565b60a082016000820151610f9c6000850182610fee565b506020820151610faf6020850182610fee565b506040820151610fc26040850182610f13565b506060820151610fd56060850182610ec7565b506080820151610fe86080850182610f31565b50505050565b610ff781611170565b82525050565b61100681611170565b82525050565b60006110188285610efc565b6010820191506110288284610ee5565b6014820191508190509392505050565b600061104382610f63565b9150819050919050565b60006020820190506110626000830184610ed6565b92915050565b600060208201905061107d6000830184610f22565b92915050565b6000602082019050818103600083015261109c81610f40565b9050919050565b600060a0820190506110b86000830184610f86565b92915050565b60006020820190506110d36000830184610ffd565b92915050565b600081905092915050565b600082825260208201905092915050565b600061110082611150565b9050919050565b60007fffffffffffffffffffffffffffffffff0000000000000000000000000000000082169050919050565b6000819050919050565b600081905061114b8261129a565b919050565b600073ffffffffffffffffffffffffffffffffffffffff82169050919050565b6000819050919050565b60006111858261113d565b9050919050565b600061119782611170565b91507fffffffffffffffffffffffffffffffffffffffffffffffffffffffffffffffff8214156111ca576111c9611203565b5b600182019050919050565b60006111e0826111f1565b9050919050565b6000819050919050565b60006111fc82611261565b9050919050565b7f4e487b7100000000000000000000000000000000000000000000000000000000600052601160045260246000fd5b7f4e487b7100000000000000000000000000000000000000000000000000000000600052602160045260246000fd5b60008160601b9050919050565b7f5472616e73666572204661696c65642100000000000000000000000000000000600082015250565b50565b600381106112ab576112aa611232565b5b50565b6112b7816110f5565b81146112c257600080fd5b50565b6112ce81611107565b81146112d957600080fd5b50565b6112e581611133565b81146112f057600080fd5b50565b6112fc81611170565b811461130757600080fd5b5056fea264697066735822122006be181a2226741d2b34652fe3623fc45ace278856af37af964570486a78781664736f6c63430008040033",
  "immutableReferences": {},
  "source": "// SPDX-License-Identifier: MIT\npragma solidity >=0.4.22 <0.9.0;\n\ncontract CourseMarketplace {\n    enum State {\n        Purchased,\n        Activated,\n        Deactivated\n    }\n\n    struct Course {\n        uint256 id; //32 bytes\n        uint256 price; //32 bytes\n        bytes32 proof; //32 bytes\n        address owner; //20 bytes\n        State state; //1 byte\n    }\n\n    //Mapping of courseHash to Course data\n    mapping(bytes32 => Course) private ownedCourses;\n\n    //Mapping of courseId to courseHash\n    mapping(uint256 => bytes32) private ownedCourseHash;\n\n    uint256 private totalOwnedCourses;\n\n    address payable private owner;\n\n    constructor() {\n        setContractOwner(msg.sender);\n    }\n\n    ///Course already has an owner\n    error CourseError();\n\n    ///Only owner is allowed to change ownership of the contract\n    error OwnerError();\n\n    ///Course has not been activated\n    error CourseIsNotCreated();\n\n    ///This sender is not owner of this course\n    error IsNotCourseOwner();\n\n    ///Course has invalid state;\n    error InvalidState();\n\n    modifier onlyOwner() {\n        if (msg.sender != getContractOwner()) {\n            revert OwnerError();\n        }\n        _;\n    }\n\n    // address - 0x5B38Da6a701c568545dCfcB03FcB875f56beddC4\n    // courseId - 0x00000000000000000000000000003130\n    // proof - 0x0000000000000000000000000000313000000000000000000000000000003130\n\n    //0x305697b3bc073ddea5b04fb9b7fb28fc3ff90fdaf47890884093525b0c1ff5e7\n    function purchaseCourse(bytes16 courseId, bytes32 proof) external payable {\n        //courseHash = 000000000000000000000000000031305B38Da6a701c568545dCfcB03FcB875f56beddC4\n        bytes32 courseHash = keccak256(abi.encodePacked(courseId, msg.sender));\n\n        if (hasCourseOwnership(courseHash)) {\n            revert CourseError();\n        }\n\n        uint256 id = totalOwnedCourses++;\n\n        ownedCourseHash[id] = courseHash;\n\n        ownedCourses[courseHash] = Course({\n            id: id,\n            price: msg.value,\n            proof: proof,\n            owner: msg.sender,\n            state: State.Purchased\n        });\n    }\n\n    function repurchaseCourse(bytes32 courseHash) external payable {\n        if (!isCourseCreated(courseHash)) {\n            revert CourseIsNotCreated();\n        }\n\n        if (!hasCourseOwnership(courseHash)) {\n            revert IsNotCourseOwner();\n        }\n\n        Course storage course = ownedCourses[courseHash];\n\n        if (course.state != State.Deactivated) {\n            revert InvalidState();\n        }\n\n        course.state = State.Purchased;\n        course.price = msg.value;\n    }\n\n    function activateCourse(bytes32 courseHash) external onlyOwner {\n        if (!isCourseCreated(courseHash)) {\n            revert CourseIsNotCreated();\n        }\n\n        Course storage course = ownedCourses[courseHash];\n\n        if (course.state != State.Purchased) {\n            revert InvalidState();\n        }\n\n        course.state = State.Activated;\n    }\n\n    function deactivateCourse(bytes32 courseHash) external onlyOwner {\n        if (!isCourseCreated(courseHash)) {\n            revert CourseIsNotCreated();\n        }\n\n        Course storage course = ownedCourses[courseHash];\n\n        if (course.state != State.Purchased) {\n            revert InvalidState();\n        }\n\n        (bool success, ) = course.owner.call{value: course.price}(\"\");\n        require(success, \"Transfer Failed!\");\n\n        course.state = State.Deactivated;\n        course.price = 0;\n    }\n\n    function transferOwnership(address newOwner) external onlyOwner {\n        setContractOwner(newOwner);\n    }\n\n    function getTotalCourses() external view returns (uint256) {\n        return totalOwnedCourses;\n    }\n\n    function getCourseAtIndex(uint256 index) external view returns (bytes32) {\n        return ownedCourseHash[index];\n    }\n\n    function getCourseAtHash(bytes32 courseHash)\n        external\n        view\n        returns (Course memory)\n    {\n        return ownedCourses[courseHash];\n    }\n\n    function getContractOwner() public view returns (address) {\n        return owner;\n    }\n\n    function isCourseCreated(bytes32 courseHash) private view returns (bool) {\n        return\n            ownedCourses[courseHash].owner !=\n            0x0000000000000000000000000000000000000000;\n    }\n\n    function setContractOwner(address setOwner) private {\n        owner = payable(setOwner);\n    }\n\n    function hasCourseOwnership(bytes32 courseHash)\n        private\n        view\n        returns (bool)\n    {\n        return ownedCourses[courseHash].owner == msg.sender;\n    }\n}\n",
  "sourcePath": "/Users/daviddamljanovic/Documents/blockchain/marketplace-eth/contracts/CourseMarketplace.sol",
  "compiler": {
    "name": "solc",
    "version": "0.8.4+commit.c7e474f2.Emscripten.clang"
  },
  "schemaVersion": "3.4.3",
  "updatedAt": "2021-11-27T02:22:47.837Z",
  "networkType": "ethereum",
  "devdoc": {
    "kind": "dev",
    "methods": {},
    "version": 1
  },
  "userdoc": {
    "errors": {
      "CourseError()": [
        {
          "notice": "Course already has an owner"
        }
      ],
      "CourseIsNotCreated()": [
        {
          "notice": "Course has not been activated"
        }
      ],
      "InvalidState()": [
        {
          "notice": "Course has invalid state;"
        }
      ],
      "IsNotCourseOwner()": [
        {
          "notice": "This sender is not owner of this course"
        }
      ],
      "OwnerError()": [
        {
          "notice": "Only owner is allowed to change ownership of the contract"
        }
      ]
    },
    "kind": "user",
    "methods": {},
    "version": 1
  }
}